:020000040800F2
:1000000000060020E1020008E3020008E302000805
:10001000E3020008E3020008E3020008E30200082C
:10002000E3020008E3020008E30200084933000885
:10003000E3020008E3020008E3020008E30200080C
:10004000E3020008E3020008E3020008E3020008FC
:10005000E3020008E3020008E3020008E3020008EC
:10006000E3020008E3020008E30200086D13000841
:1000700095130008C1130008ED13000819140008B7
:10008000411400086D140008E3020008E3020008B0
:10009000E3020008E3020008E3020008E3020008AC
:1000A000E3020008E3020008E3020008E30200089C
:1000B000E3020008E3020008E3020008E30200088C
:1000C000E3020008E3020008E3020008E30200087C
:1000D000E30200082D4B0008E3020008E3020008D9
:1000E000E3020008E3020008E3020008E30200085C
:1000F000E3020008E3020008E30200089914000884
:10010000E3020008E3020008414B0008E302000894
:10011000E3020008E3020008E3020008E30200082B
:10012000C5140008ED14000819150008451500084D
:1001300071150008E3020008E3020008E30200086A
:10014000E3020008E3020008E3020008E3020008FB
:1001500099150008C5150008F1150008E30200080C
:10016000E3020008E3020008E3020008E3020008DB
:10017000E3020008353F0008E3020008E30200083C
:10018000E3020008E3020008E3020008E3020008BB
:10019000E3020008E3020008E3020008E3020008AB
:1001A000E3020008E3020008E3020008E30200089B
:1001B000E3020008E3020008E3020008E30200088B
:1001C000E3020008E3020008E3020008E30200087B
:1001D000E3020008213F0008E3020008E3020008F0
:1001E000E3020008E3020008E3020008E30200085B
:1001F000E3020008E3020008E3020008E30200084B
:10020000E3020008E3020008E3020008E30200083A
:10021000E3020008E3020008E3020008E30200082A
:10022000E3020008E3020008E3020008E30200081A
:10023000E3020008E3020008E3020008E30200080A
:10024000E3020008E3020008E3020008E3020008FA
:10025000E3020008E3020008E3020008E3020008EA
:10026000E3020008E3020008E3020008E3020008DA
:10027000E3020008E3020008E3020008E3020008CA
:10028000E3020008E3020008E3020008E3020008BA
:10029000E3020008E3020008E3020008E3020008AA
:1002A000E3020008E3020008E3020008E30200089A
:1002B000E3020008E3020008E3020008E30200088A
:1002C000E3020008E3020008E3020008E30200087A
:1002D000E3020008E3020008E3020008E30200086A
:1002E00002E000F000F8FEE772B6374880F30888B5
:1002F000364880F3098836483649086040F20000E5
:10030000CCF200004EF63471CEF200010860BFF36B
:100310004F8FBFF36F8F40F20000C0F2F0004EF637
:100320008851CEF200010860BFF34F8FBFF36F8F8B
:100330004FF00000E1EE100A4EF63C71CEF20001E3
:100340000860062080F31488BFF36F8F03F05EF817
:1003500004F0A6F94FF055301F491B4A91423CBFAB
:1003600041F8040BFAE71D49184A91423CBF41F895
:10037000040BFAE71A491B4A1B4B9A423EBF51F83D
:10038000040B42F8040BF8E700201849184A914280
:100390003CBF41F8040BFAE703F076F804F004FAE6
:1003A000144C154DAC4203DA54F8041B8847F9E7A6
:1003B00000F042F8114C124DAC4203DA54F8041B21
:1003C0008847F9E703F05EB800060020002200200D
:1003D0000000000808ED00E00000002000060020FA
:1003E00080500008002200206422002068220020A3
:1003F0008C480020E0020008E0020008E00200084B
:10040000E00200082DE9F04F2DED108AC1F80CD064
:10041000D0F80CD0BDEC108ABDE8F08F002383F338
:1004200011882846A047002002F034FAFEE702F0C7
:10043000B9F900DFFEE7000070B594B000F09CFD54
:1004400000F06CFF02F030FF054602F063FF044647
:10045000002840F0CB806A4B9D4200F0C9800133F8
:100460009D4241F2883504BF01240025002002F09E
:1004700025FF0CB100F032F900F0EEFE132101A8C7
:1004800002F058FF9DF84F30002B00F0B38000249D
:10049000132101A88DF84F4002F046FF594BD3F8C5
:1004A000D82042F00062C3F8D820D3F8002122F00F
:1004B0000062C3F80021D3F80021534AD2F804188F
:1004C00041F00201C2F8041801219463116111691D
:1004D00011F00101FBD1D3F8802042F00062C3F893
:1004E0008020D3F8802022F00062C3F88020D3F867
:1004F0008020D3F8D82022F00062C3F8D820D3F8A7
:10050000002122F00062C3F80021404AD3F80031F4
:10051000C2F88410BFF34F8FD2F8803043F6E074F6
:10052000C3F3C900C3F34E335B0103EA040601467B
:1005300046EA81750139C2F86C52F9D2203B13F1B9
:10054000200FF2D1BFF34F8FBFF36F8F0023C2F89C
:100550008430BFF34F8F536923F480335361BFF36B
:100560004F8FD2F8803043F6E074284AC3F3C900B5
:10057000C3F34E335B0103EA0406014646EA817584
:100580000139C2F87452F9D2203B13F1200FF2D195
:10059000BFF34F8FBFF36F8FBFF34F8FBFF36F8FDB
:1005A0000023C2F85032BFF34F8FBFF36F8FBFF3FA
:1005B0004F8FBFF36F8F516921F400315161C2F841
:1005C0005032BFF34F8FBFF36F8F62B69360C2F8A4
:1005D000883083F31488BFF36F8F0D4BD3F8002856
:1005E00082F30888D3F804389847FEE700253DE7F2
:1005F00005463BE7284600F01FF900F06FF8F9E7E1
:10060000010007B0004402580000084000ED00E07F
:100610000090F01F08B500F07BFCA0F120035842C9
:10062000584108BD07B5042101900DEB010000F011
:100630008DFC03B05DF804FB38B5302383F31188DB
:10064000174803680BB102F0F1F90023154A4FF483
:100650007A71134802F0E0F9002383F31188124CF9
:10066000236813B12368013B2360636813B1636897
:10067000013B63600D4D2B7833B963687BB9022071
:1006800000F04CFD322363602B78032B07D16368A5
:100690002BB9022000F042FD4FF47A73636038BD3D
:1006A00068220020390600088823002080220020CC
:1006B000084B187003280CD8DFE800F00805020882
:1006C000022000F01DBD022000F00ABD024B0022F6
:1006D0005A6070478022002088230020F8B5504BD4
:1006E000504A1C461968013100F099800433934246
:1006F000F8D162684C4B9A4240F291804B4B9B6818
:1007000003F1006303F500339A4280F088800020F3
:1007100000F058FC0220FFF7CBFF454B0021D3F837
:10072000E820C3F8E810D3F81021C3F81011D3F86B
:100730001021D3F8EC20C3F8EC10D3F81421C3F83F
:100740001411D3F81421D3F8F020C3F8F010D3F823
:100750001821C3F81811D3F81821D3F8802042F0DB
:100760000062C3F88020D3F8802022F00062C3F832
:100770008020D3F88020D3F8802042F00072C3F8A4
:100780008020D3F8802022F00072C3F88020D3F8B4
:10079000803072B64FF0E023C3F8084DD4E900046E
:1007A000BFF34F8FBFF36F8F224AC2F88410BFF39D
:1007B0004F8F536923F480335361BFF34F8FD2F8C7
:1007C000803043F6E076C3F3C905C3F34E335B01D3
:1007D00003EA060C29464CEA81770139C2F87472A3
:1007E000F9D2203B13F1200FF2D1BFF34F8FBFF3AB
:1007F0006F8FBFF34F8FBFF36F8F536923F40033B5
:1008000053610023C2F85032BFF34F8FBFF36F8F95
:10081000302383F31188854680F308882047F8BD8C
:100820000000020820000208FFFF0108002200204B
:100830000044025800ED00E02DE9F04F95B0DFF8DC
:10084000D8922022FF21029004A8D9F8085000F085
:10085000ADFCA84A1378A3B90121A7481170036021
:10086000302383F3118803680BB102F0DFF8002313
:10087000A24A4FF47A71A04802F0CEF8002383F325
:100880001188029B13B19E4B029A1A609D4A1378FD
:10089000032B03D000231370994A53604FF0000BD1
:1008A000029C5E46DA46CDF804B0012000F028FC38
:1008B00024B1934B1B68002B00F02882002000F02D
:1008C00027FBB0F10008F3DB012000F009FCA8F1E0
:1008D00021031F2BE9D801A252F823F05D0900087B
:1008E00079090008070A0008AB080008AB080008EF
:1008F000AB080008910A0008830C0008750B00087B
:10090000D10B0008F70B00081D0C0008AB0800080D
:100910002F0C0008530C0008CB0C0008E509000858
:10092000AB080008130D000869090008E509000874
:10093000AB080008D10B0008AB080008AB080008A2
:10094000AB080008AB080008AB080008AB080008BB
:10095000AB080008AB080008070A00080220FFF7F0
:1009600059FE002840F0FF81029B02216648BBF13E
:10097000000F08BF1C4640E04FF47A7000F0C8FA40
:10098000071EF1DB0220FFF745FE0028ECD0013FF7
:10099000052F00F2EA81DFE807F003070A0D1033A4
:1009A0000520FFF73FFE14E0D9F80000F9E7D9F879
:1009B0000400F6E7D9F80800F3E74FF01C084046BA
:1009C00008F1040800F000FBFFF72CFEB8F12C0F33
:1009D000F5D10120019B4FF0000A00FA07F71F43F1
:1009E000FBB2019300F02EFC2EB1019B03F00B0330
:1009F0000B2B08BF00240221444800F0A7FA54E75B
:100A0000D9F80C00CDE7002EAED0019B03F00B030C
:100A10000B2BA9D10220FFF7FDFD07460028A3D02C
:100A20000120002600F0CEFA0220FFF741FE1FFA57
:100A300086FB584600F0D6FA044688B1A8F1400279
:100A4000584601365142514100F0DCFA0028EED1FF
:100A5000BB46044602212E483E4600F077FA24E7C2
:100A600025460120FFF724FED9F80830AB4207D90C
:100A7000284600F0A9FA013040F07A810435F3E706
:100A80000025204BBB463E461D701D4B5D60A9E70F
:100A9000002E3FF469AF019B03F00B030B2B7FF497
:100AA00063AF0220FFF704FE322000F031FAB0F10C
:100AB0000008FFF659AF18F003077FF455AF08EBB5
:100AC0000503D9F8082093423FF64EAFB8F5807F72
:100AD0003FF74AAF0F4BB84503931FDD4FF47A70D1
:100AE00000F016FA0028FFF63FAF039B013703F82A
:100AF000010BF0E78423002068220020390600085B
:100B00008823002080220020E44B0008DC4B0008F2
:100B1000E04B00088422002000220020C820FFF7BC
:100B200079FD074600283FF41FAF1F2D11D8C5F1EE
:100B3000200204AB25F003008F494245184428BF2A
:100B40004246039200F00CFB039AFF218A4800F012
:100B50002DFB4FEAA803C8F3870287492846039371
:100B600000F02CFB064600283FF474AF039B05EB16
:100B7000830537E70220FFF74DFD00283FF4F4AE70
:100B800000F05EFA00283FF4EFAE0027B846D9F82F
:100B90000830BB4218D91F2F11D8049B01330ED047
:100BA00027F0030314AA134453F8403C0C93404627
:100BB00004220CA9043700F0C3FB8046E7E738465F
:100BC00000F002FA0C90F2E74046FFF72BFD09E730
:100BD000002364210CA80C9300F0AEF900287FF4E8
:100BE000C3AE0220FFF716FD00283FF4BDAE0C98FF
:100BF00000F01CFAE9E7002364210CA80C9300F034
:100C00009BF900287FF4B0AE0220FFF703FD002817
:100C10003FF4AAAE0C9800F00BFAD6E70220FFF7DB
:100C2000F9FC00283FF4A0AE00F01AFACDE702204C
:100C3000FFF7F0FC00283FF497AE0CA9142000F059
:100C400015FA0390FFF7EEFC03990CA800F07EF96B
:100C5000C8E60220FFF7DEFC00283FF485AE474BD4
:100C60000CAF03F1100C1868083353F8041C3A4613
:100C7000634503C21746F6D11020FFF7D3FC1021BD
:100C8000E3E7322000F044F9071EFFF66DAEBB0724
:100C90007FF46AAE07EB0A03D9F8082093423FF6C7
:100CA00063AE0220FFF7B6FC00283FF45DAE27F0EC
:100CB00003075744BA453FF495AE50460AF1040A7B
:100CC00000F082F9FFF7AEFCF4E74FF47A70FFF71B
:100CD000A1FC00283FF448AE00F0B2F9002849D04A
:100CE000049B01330BD0082204A9002000F066FA0F
:100CF00000283FD02022FF2104A800F057FA204806
:100D0000022100F023F91F4801F0CAFD15B0BDE82B
:100D1000F08F002E3FF428AE019B03F00B030B2B4A
:100D20007FF422AE002364210CA80C9300F004F998
:100D3000074600287FF418AE0220FFF76BFC8046C0
:100D400000283FF411AE02210D4800F0FFF841F2F7
:100D5000883001F0A5FD0C9800F0BEFA46463C46EE
:100D600000F070FAA1E506463CE64FF0000AFBE50C
:100D7000BB466FE637466DE684220020C84B00086C
:100D8000DC4B0008A08601002DE9F84F4FF47A7380
:100D900006460D46002402FB03F7DFF85080DFF81B
:100DA000509098F900305FFA84FA5A1C01D0A3429F
:100DB00012D159F824002A4631460368D3F820B0EE
:100DC0003B46D847854207D1074B012083F800A056
:100DD000BDE8F88F0124E4E7002CFBD04FF4FA7053
:100DE00001F05EFD0020F3E7D42300201022002054
:100DF0001422002000232DE9F0471A4605468846B4
:100E00000120194600F09CFC0446802002F0DCF929
:100E10000746002861D0002C5FD03B4E28464FF09B
:100E2000800A736943F0C0637361D6F8143143F0EC
:100E3000C063C6F8143102F04BF805EB080200FB62
:100E400005F34FF4D06C50434FF03D0E834233D244
:100E50003269520143D4D6F8102151013FD42168A0
:100E600003F100628A602268D7602268C2F804A099
:100E70002268C2F800C0D4F80090D9F8002042F0EF
:100E80000102C9F80020D4F80090D9F8002022F01F
:100E90001E02C9F80020D4F80090D9F80020D2072B
:100EA000FBD494F80C90803361680EFA09F20A6062
:100EB000CCE7002002F0EAF8204600F081FC38463A
:100EC00002F0B8F9104B5A6942F0C0625A61D3F887
:100ED000142142F0C062C3F81421BDE8F0870B4B27
:100EE0009A6A42F400729A629A6A42F400429A62E2
:100EF00061B60026012002F0C9F8B045D9D9A81979
:100F0000013601F0FDFFF8E70020005200ED00E09F
:100F1000002307B5024601210DF107008DF80730C7
:100F2000FFF732FF20B19DF8070003B05DF804FB26
:100F30004FF0FF30F9E700000A46042108B5FFF73B
:100F400023FF80F00100C0B2404208BD074B0A46B3
:100F500030B41978064B53F82140014623682046E7
:100F6000DD69044BAC4630BC604700BFD423002091
:100F700014220020A086010070B5104C0025104EF0
:100F800001F0AAFF20803068238883420CD8002516
:100F90002088013801F09CFF23880544013BB5F50A
:100FA000802F2380F4D370BD01F092FF3368054495
:100FB0000133B5F5003F3360E5D3E8E7D6230020E1
:100FC0009023002002F062B800F1006000F50030CC
:100FD0000068704700F10060920000F5003001F0F9
:100FE000D7BF0000054B1A68054B1B889B1A83422C
:100FF00002D9104401F06CBF0020704790230020FC
:10100000D623002038B50446074D29B1286820446E
:10101000BDE8384001F074BF2868204401F05EFF4D
:101020000028F3D038BD00BF902300200020704777
:1010300000F1FF5000F58F10D0F800087047000055
:10104000064991F8243033B100230822086A81F858
:101050002430FFF7BFBF0120704700BF942300205A
:10106000014B1868704700BF0010005C194B013835
:101070000322084470B51D68174BC5F30B042D0CF3
:101080001E88A6420BD15C680A46013C8242134688
:101090000FD214F9016F4EB102F8016BF6E7013A75
:1010A00003F10803ECD181420B4602D22C2203F853
:1010B000012B0424094A1688AE4204D1984284BF09
:1010C000967803F8016B013C02F10402F3D1581A3F
:1010D00070BD00BF0010005C1C220020144C0008F2
:1010E000022804D1054B4FF480129A617047012801
:1010F000FCD1024B4FF48002F7E700BF001002580A
:10110000022803D1044B10229A6170470128FCD1B8
:10111000014B4022F8E700BF00100258022805D119
:10112000064A536983F01003536170470128FCD1CC
:10113000024A536983F04003F6E700BF00100258EB
:1011400070B504464FF47A764CB1412C254628BF41
:10115000412506FB05F0641B01F0A2FBF4E770BD1E
:10116000002310B5934203D0CC5CC4540133F9E79B
:1011700010BD0000013810B510F9013F3BB191F9E5
:1011800000409C4203D11AB10131013AF4E71AB18F
:1011900091F90020981A10BD1046FCE7034602465C
:1011A000D01A12F9011B0029FAD1704702440346F4
:1011B000934202D003F8011BFAE770472DE9F84388
:1011C0001F4D14460746884695F8242052BBDFF889
:1011D00070909CB395F824302BB92022FF2148460B
:1011E0002F62FFF7E3FF95F824004146C0F10802A3
:1011F00005EB8000A24228BF2246D6B29200FFF73C
:10120000AFFF95F82430A41B17441E449044E4B269
:10121000F6B2082E85F82460DBD1FFF711FF002815
:10122000D7D108E02B6A03EB82038342CFD0FFF7CC
:1012300007FF0028CBD10020BDE8F8830120FBE7A1
:1012400094230020024B1A78024B1A70704700BF9B
:10125000D42300201022002038B51A4C1A4D204605
:1012600000F038FE2946204600F060FE2D684FF45D
:101270007A70D5F89020D2F8043843F00203C2F80F
:101280000438FFF75DFF1149284600F05DFFD5F8EF
:1012900090200F4DD2F80438286823F002030D493E
:1012A000A042C2F804384FF4E1330B6001D000F0E3
:1012B0006FFD6868A04204D00649BDE8384000F0E0
:1012C00067BD38BD382B0020104E0008184E0008AE
:1012D00014220020BC2300200C4B70B50C4D04469A
:1012E0001E780C4B55F826209A420DD00A4B00214F
:1012F00018221846FFF75AFF0460014655F82600E9
:10130000BDE8704000F044BD70BD00BFD423002094
:1013100014220020382B0020BC23002008B571B611
:10132000054B1988054B1888FFF764FD02210E2034
:10133000FFF760FD61B608BDD62300209023002092
:1013400030B50A44084D91420DD011F8013B584088
:10135000082340F30004013B2C4013F0FF0384EA10
:101360005000F6D1EFE730BD2083B8ED08B5074B4C
:10137000074A196801F03D01996053680BB1906804
:101380009847BDE8084002F017B800BF00000240CF
:10139000D823002008B5084B1968890901F03D01E0
:1013A0008A019A60054AD3680BB110699847BDE875
:1013B000084002F001B800BF00000240D82300201E
:1013C00008B5084B1968090C01F03D010A049A6040
:1013D000054A53690BB190699847BDE8084001F090
:1013E000EBBF00BF00000240D823002008B5084B27
:1013F0001968890D01F03D018A059A60054AD36993
:101400000BB1106A9847BDE8084001F0D5BF00BF96
:1014100000000240D823002008B5074B074A59684E
:1014200001F03D01D960536A0BB1906A9847BDE85D
:10143000084001F0C1BF00BF00000240D8230020D7
:1014400008B5084B5968890901F03D018A01DA6045
:10145000054AD36A0BB1106B9847BDE8084001F00C
:10146000ABBF00BF00000240D823002008B5084BE6
:101470005968090C01F03D010A04DA60054A536B12
:101480000BB1906B9847BDE8084001F095BF00BFD5
:1014900000000240D823002008B5084B5968890D88
:1014A00001F03D018A05DA60054AD36B0BB1106C7F
:1014B0009847BDE8084001F07FBF00BF0000024030
:1014C000D823002008B5074B074A196801F03D01F1
:1014D0009960536C0BB1906C9847BDE8084001F0DF
:1014E0006BBF00BF00040240D823002008B5084BA2
:1014F0001968890901F03D018A019A60054AD36C97
:101500000BB1106D9847BDE8084001F055BF00BF12
:1015100000040240D823002008B5084B1968090CC4
:1015200001F03D010A049A60054A536D0BB1906DBC
:101530009847BDE8084001F03FBF00BF00040240EB
:10154000D823002008B5084B1968890D01F03D012A
:101550008A059A60054AD36D0BB1106E9847BDE8B5
:10156000084001F029BF00BF00040240D82300203A
:1015700008B5074B074A596801F03D01D960536E21
:101580000BB1906E9847BDE8084001F015BF00BF51
:1015900000040240D823002008B5084B5968890987
:1015A00001F03D018A01DA60054AD36E0BB1106F7C
:1015B0009847BDE8084001F0FFBE00BF00040240AC
:1015C000D823002008B5084B5968090C01F03D01EB
:1015D0000A04DA60054A536F0BB1906F9847BDE873
:1015E000084001F0E9BE00BF00040240D8230020FB
:1015F00008B5084B5968890D01F03D018A05DA608C
:10160000054AD36F13B1D2F880009847BDE808406F
:1016100001F0D2BE00040240D823002000230C4970
:1016200010B51A460B4C0B6054F82300026001EB16
:10163000430004334260402BF6D1074A4FF0FF339A
:101640009360D360C2F80834C2F80C3410BD00BFF8
:10165000D8230020244C0008000002400F28F8B5D1
:1016600010D9102810D0112811D0122808D10F2419
:101670000720DFF8C8E00126DEF80050A04208D9B4
:10168000002653E00446F4E70F240020F1E7072486
:10169000FBE706FA00F73D424AD1264C4FEA001C10
:1016A0003D4304EB00160EEBC000CEF80050C0E93D
:1016B0000123FBB273B12048D0F8D83043F00103C6
:1016C000C0F8D830D0F8003143F00103C0F8003141
:1016D000D0F8003117F47F4F0ED01748D0F8D8302B
:1016E00043F00203C0F8D830D0F8003143F00203D1
:1016F000C0F80031D0F8003154F80C00036823F032
:101700001F030360056815F00105FBD104EB0C0312
:101710003D2493F80CC05F6804FA0CF43C6021246B
:101720000560446112B1987B00F066F93046F8BD5F
:101730000130A3E7244C000800440258D8230020BD
:1017400010B5302484F31188FFF788FF002383F35A
:10175000118810BD10B50446807B00F063F90123A9
:101760001549627B03FA02F20B6823EA0203DAB23C
:101770000B6072B9114AD2F8D81021F00101C2F8F9
:10178000D810D2F8001121F00101C2F80011D2F8EE
:10179000002113F47F4F0ED1084BD3F8D82022F04C
:1017A0000202C3F8D820D3F8002122F00202C3F8C5
:1017B0000021D3F8003110BDD82300200044025886
:1017C00008B5302383F31188FFF7C4FF002383F3A8
:1017D000118808BD026843681143016003B11847CE
:1017E00070470000024A136843F0C003136070475B
:1017F0000010014013B50E4C204600F0BDFA04F174
:10180000140000234FF400720A49009400F07AF9A2
:10181000094B4FF40072094904F13800009400F0BC
:10182000F3F9074A074BC4E9172302B010BD00BF04
:101830005C240020C8240020E5170008C8260020EA
:101840000010014000E1F505037C30B5244C00296F
:1018500018BF0C46012B11D1224B98420ED1224BBE
:10186000D3F8F02042F01002C3F8F020D3F818218A
:1018700042F01002C3F81821D3F818312268036E21
:10188000C16D03EB52038466B3FBF2F36268150487
:1018900042BF23F0070503F0070343EA4503CB608B
:1018A000A36843F040034B60E36843F001038B609F
:1018B00042F4967343F001030B604FF0FF330B6269
:1018C000510505D512F0102205D0B2F1805F04D089
:1018D00080F8643030BD7F23FAE73F23F8E700BF8C
:1018E000244D00085C240020004402582DE9F047F4
:1018F000C66D05463768F469210734621AD014F0C2
:10190000080118BF4FF48071E20748BF41F0200181
:10191000A3074FF0300348BF41F04001600748BFC4
:1019200041F0800183F31188281DFFF753FF002346
:1019300083F31188E2050AD5302383F311884FF42D
:101940008061281DFFF746FF002383F311884FF0C5
:1019500030094FF0000A14F0200838D13B0616D5A4
:101960004FF0300905F1380A200610D589F31188A7
:10197000504600F07DF9002836DA0821281DFFF7CF
:1019800029FF27F080033360002383F31188790651
:1019900014D5620612D5302383F31188D5E91323B9
:1019A0009A4208D12B6C33B127F040071021281D33
:1019B000FFF710FF3760002383F31188E30618D583
:1019C000AA6E1369ABB15069BDE8F047184789F3B7
:1019D0001188736A284695F86410194000F0E6F9FA
:1019E0008AF31188F469B6E7B06288F31188F46964
:1019F000BAE7BDE8F0870000090100F16043012269
:101A000003F56143C9B283F8001300F01F039A4045
:101A100043099B0003F1604303F56143C3F8802150
:101A20001A60704700F01F0301229A40430900F139
:101A300060409B0000F5614003F1604303F56143A2
:101A4000C3F88020C3F88021002380F8003370475A
:101A5000F8B51546826804460B46AA4200D285684E
:101A6000A1692669761AB5420BD218462A46FFF7B5
:101A700077FBA3692B44A3612846A3685B1BA36083
:101A8000F8BD0CD9AF1B18463246FFF769FB3A4642
:101A9000E1683044FFF764FBE3683B44EBE718463A
:101AA0002A46FFF75DFBE368E5E7000083689342A1
:101AB000F7B50446154600D28568D4E90460361AA5
:101AC000B5420BD22A46FFF74BFB63692B44636197
:101AD0002846A3685B1BA36003B0F0BD0DD9324656
:101AE000AF1B0191FFF73CFB01993A46E068314496
:101AF000FFF736FBE3683B44E9E72A46FFF730FB94
:101B0000E368E4E710B50A440024C361029B8460E3
:101B1000C16002610362C0E90000C0E9051110BDA7
:101B200008B5D0E90532934201D1826882B9826852
:101B3000013282605A1C426119700021D0E90432DE
:101B40009A4224BFC368436100F0C6FE002008BD6E
:101B50004FF0FF30FBE7000070B5302304460E461F
:101B600083F31188A568A5B1A368A269013BA360AE
:101B7000531CA36115782269934224BFE368A361D3
:101B8000E3690BB120469847002383F31188284668
:101B900007E03146204600F08FFE0028E2DA85F3A8
:101BA000118870BD2DE9F74F04460E46174698463A
:101BB000D0F81C904FF0300A8AF311884FF0000BD8
:101BC000154665B12A4631462046FFF741FF0346D8
:101BD00060B94146204600F06FFE0028F1D0002396
:101BE00083F31188781B03B0BDE8F08FB9F1000FC3
:101BF00003D001902046C847019B8BF31188ED1A52
:101C00001E448AF31188DCE7C160C361009B8260D7
:101C10000362C0E905111144C0E900000161704789
:101C2000F8B504460D461646302383F31188A7689D
:101C3000A7B1A368013BA36063695A1C62611D7070
:101C4000D4E904329A4224BFE3686361E3690BB1CB
:101C500020469847002080F3118807E0314620464F
:101C600000F02AFE0028E2DA87F31188F8BD0000B0
:101C7000D0E9052310B59A4201D182687AB9826809
:101C80000021013282605A1C82611C7803699A42E9
:101C900024BFC368836100F01FFE204610BD4FF0D3
:101CA000FF30FBE72DE9F74F04460E4617469846EE
:101CB000D0F81C904FF0300A8AF311884FF0000BD7
:101CC000154665B12A4631462046FFF7EFFE03462A
:101CD00060B94146204600F0EFFD0028F1D0002316
:101CE00083F31188781B03B0BDE8F08FB9F1000FC2
:101CF00003D001902046C847019B8BF31188ED1A51
:101D00001E448AF31188DCE70268436811430160CE
:101D100003B11847704700001430FFF743BF0000BD
:101D20004FF0FF331430FFF73DBF00003830FFF7AE
:101D3000B9BF00004FF0FF333830FFF7B3BF0000EA
:101D40001430FFF709BF00004FF0FF311430FFF7E8
:101D500003BF00003830FFF763BF00004FF0FF32D1
:101D60003830FFF75DBF0000012914BF6FF013008A
:101D700000207047FFF73EBD044B03600023436023
:101D8000C0E9023301230374704700BF3C4D0008D3
:101D900010B53023044683F31188FFF755FD022365
:101DA0000020237480F3118810BD000038B5C3698A
:101DB00004460D461BB904210844FFF7A5FF294638
:101DC00004F11400FFF7ACFE002806DA201D4FF4E2
:101DD0000061BDE83840FFF797BF38BD026843682F
:101DE0001143016003B118477047000013B5406B01
:101DF00000F58054D4F8A4381A681178042914D155
:101E0000017C022911D11979012312898B401342D7
:101E10000BD101A94C3002F0BFF9D4F8A448024616
:101E2000019B2179206800F0DFF902B010BD0000AD
:101E3000143002F041B900004FF0FF33143002F0CB
:101E40003BB900004C3002F013BA00004FF0FF33F2
:101E50004C3002F00DBA0000143002F00FB900004F
:101E60004FF0FF31143002F009B900004C3002F09D
:101E7000DFB900004FF0FF324C3002F0D9B900005A
:101E80000020704710B500F58054D4F8A4381A68C3
:101E90001178042917D1017C022914D15979012321
:101EA00052898B4013420ED1143002F0A1F8024641
:101EB00048B1D4F8A4484FF4407361792068BDE874
:101EC000104000F07FB910BD406BFFF7DBBF000092
:101ED000704700007FB5124B0125042604460360BD
:101EE0000023057400F1840243602946C0E90233EF
:101EF0000C4B0290143001934FF44073009602F0A3
:101F000053F8094B04F69442294604F14C0002941C
:101F1000CDE900634FF4407302F01AF904B070BDCC
:101F2000644D0008C91E0008ED1D00080A68302332
:101F300083F311880B790B3342F823004B79133369
:101F400042F823008B7913B10B3342F8230000F5DC
:101F50008053C3F8A41802230374002080F311886F
:101F60007047000038B5037F044613B190F8543031
:101F7000ABB90125201D0221FFF730FF04F1140049
:101F80006FF00101257700F0B3FC04F14C0084F8F8
:101F900054506FF00101BDE8384000F0A9BC38BDD5
:101FA00010B5012104460430FFF718FF0023237702
:101FB00084F8543010BD000038B5044600251430B4
:101FC00002F00AF804F14C00257702F0D9F8201D40
:101FD00084F854500121FFF701FF2046BDE8384046
:101FE000FFF750BF90F8803003F06003202B06D13C
:101FF00090F881200023212A03D81F2A06D8002028
:102000007047222AFBD1C0E91D3303E0034A42672F
:1020100007228267C3670120704700BF3422002077
:1020200037B500F58055D5F8A4381A681178042919
:102030001AD1017C022917D11979012312898B4009
:10204000134211D100F14C04204602F059F958B165
:1020500001A9204602F0A0F8D5F8A4480246019B49
:102060002179206800F0C0F803B030BD01F10B0306
:10207000F0B550F8236085B004460D46FEB130231C
:1020800083F3118804EB8507301D0821FFF7A6FEB6
:10209000FB6806F14C005B691B681BB1019002F004
:1020A00089F8019803A902F077F8024648B1039B2A
:1020B0002946204600F098F8002383F3118805B0E4
:1020C000F0BDFB685A691268002AF5D01B8A013BF3
:1020D0001340F1D104F18002EAE70000133138B572
:1020E00050F82140ECB1302383F3118804F580537C
:1020F000D3F8A4281368527903EB8203DB689B6949
:102100005D6845B104216018FFF768FE294604F1B7
:10211000140001F077FF2046FFF7B4FE002383F39D
:10212000118838BD7047000001F044BA01234022F5
:10213000002110B5044600F8303BFFF737F80023C4
:10214000C4E9013310BD000010B53023044683F309
:1021500011882422416000210C30FFF727F8204627
:1021600001F04AFA02230020237080F3118810BD89
:1021700070B500EB8103054650690E461446DA60DF
:1021800018B110220021FFF711F8A06918B1102230
:102190000021FFF70BF831462846BDE8704001F0FA
:1021A00031BB000083682022002103F0011310B529
:1021B000044683601030FEF7F9FF2046BDE810406A
:1021C00001F0ACBBF0B4012500EB810447898D40E0
:1021D000E4683D43A469458123600023A2606360F5
:1021E000F0BC01F0C9BB0000F0B4012500EB810494
:1021F00007898D40E4683D436469058123600023BD
:10220000A2606360F0BC01F03FBC000070B5022327
:1022100000250446242203702946C0F888500C305B
:1022200040F8045CFEF7C2FF204684F8705001F0CD
:102230007DFA63681B6823B129462046BDE87040DB
:10224000184770BD0378052B10B504460AD080F8F6
:102250008C300523037043681B680BB10421984739
:102260000023A36010BD00000178052906D190F875
:102270008C20436802701B6803B118477047000048
:1022800070B590F87030044613B1002380F87030B8
:1022900004F18002204601F065FB63689B68B3B9D6
:1022A00094F8803013F0600535D00021204601F00D
:1022B00057FE0021204601F047FE63681B6813B1FA
:1022C000062120469847062384F8703070BD2046CA
:1022D00098470028E4D0B4F88630A26F9A4288BFAD
:1022E000A36794F98030A56F002B4FF0300380F284
:1022F0000381002D00F0F280092284F8702083F31E
:10230000118800212046D4E91D23FFF76DFF00232B
:1023100083F31188DAE794F8812003F07F0343EA1E
:10232000022340F20232934200F0C58021D8B3F577
:10233000807F48D00DD8012B3FD0022B00F0938036
:10234000002BB2D104F1880262670222A267E36720
:10235000C1E7B3F5817F00F09B80B3F5407FA4D146
:1023600094F88230012BA0D1B4F8883043F00203F6
:1023700032E0B3F5006F4DD017D8B3F5A06F31D070
:10238000A3F5C063012B90D86368204694F882209F
:102390005E6894F88310B4F88430B047002884D085
:1023A000436863670368A3671AE0B3F5106F36D01C
:1023B00040F6024293427FF478AF5C4B636702239E
:1023C000A3670023C3E794F88230012B7FF46DAF3D
:1023D000B4F8883023F00203A4F88830C4E91D550E
:1023E000E56778E7B4F88030B3F5A06F0ED194F8C4
:1023F0008230204684F88A3001F0F6F963681B6861
:1024000013B1012120469847032323700023C4E918
:102410001D339CE704F18B0363670123C3E7237833
:10242000042B10D1302383F311882046FFF7BAFE26
:1024300085F311880321636884F88B5021701B6831
:102440000BB12046984794F88230002BDED084F8F8
:102450008B300423237063681B68002BD6D00221C5
:1024600020469847D2E794F8843020461D0603F0B2
:102470000F010AD501F068FA012804D002287FF480
:1024800014AF2B4B9AE72B4B98E701F04FFAF3E789
:1024900094F88230002B7FF408AF94F8843013F066
:1024A0000F01B3D01A06204602D501F071FDADE749
:1024B00001F062FDAAE794F88230002B7FF4F5AEBC
:1024C00094F8843013F00F01A0D01B06204602D5EB
:1024D00001F046FD9AE701F037FD97E7142284F8F2
:1024E000702083F311882B462A4629462046FFF7A1
:1024F00069FE85F31188E9E65DB1152284F8702044
:1025000083F3118800212046D4E91D23FFF75AFEEA
:10251000FDE60B2284F8702083F311882B462A46AF
:1025200029462046FFF760FEE3E700BF944D000810
:102530008C4D0008904D000838B590F87030044676
:10254000002B3ED0063BDAB20F2A34D80F2B32D8FC
:10255000DFE803F0373131082232313131313131A6
:1025600031313737856FB0F886309D4214D2C36859
:102570001B8AB5FBF3F203FB12556DB9302383F3CD
:1025800011882B462A462946FFF72EFE85F311882F
:102590000A2384F870300EE0142384F8703030235E
:1025A00083F31188002320461A461946FFF70AFED6
:1025B000002383F3118838BDC36F03B1984700230C
:1025C000E7E70021204601F0CBFC0021204601F086
:1025D000BBFC63681B6813B106212046984706239D
:1025E000D7E7000010B590F870300446142B29D0BE
:1025F00017D8062B05D001D81BB110BD093B022B03
:10260000FBD80021204601F0ABFC0021204601F060
:102610009BFC63681B6813B106212046984706237C
:1026200019E0152BE9D10B2380F87030302383F3A8
:10263000118800231A461946FFF7D6FD002383F3BD
:102640001188DAE7C3689B695B68002BD5D1C36F3B
:1026500003B19847002384F87030CEE700238268E6
:10266000037503691B6899689142FBD25A6803603D
:1026700042601060586070470023826803750369E8
:102680001B6899689142FBD85A68036042601060E9
:102690005860704708B50846302383F311880A7DD7
:1026A0000023052A06D8DFE802F00B050503120E09
:1026B000826913604FF0FF338361FFF7CFFF002380
:1026C00083F3118808BD8269936801339360D0E970
:1026D000003213605A60EDE7FFF7C0BF38B50A4B10
:1026E0001C68DD682875226853601A600122DC606E
:1026F000A3682275934201D100F022FE29462046AC
:10270000BDE83840FDF77EBEC82800200C4B30B530
:10271000DD684B1C87B004460FD02B46094A68463B
:1027200000F07AF92046FFF7D9FF009B13B1684605
:1027300000F07CF9A86907B030BDFFF7CFFFF9E7DB
:10274000C82800209526000870B50F4E0446816108
:10275000F36881689A68914203D8BDE87040FFF73A
:102760007DBF1846FFF788FF83680546012B01D11E
:1027700000F0E8FD012329462046F4602375BDE8FA
:102780007040FDF73FBE00BFC8280020044B1A6808
:10279000DB6890689B68984294BF002001207047D6
:1027A000C828002038B50B4B1C68DD6822685360D0
:1027B0001A600122DC602275AB68934201D100F0FF
:1027C000C1FD2846FFF758FF01462046BDE83840C6
:1027D000FDF718BEC828002038B50123084C002595
:1027E0002370656001F0C8FD01F0EEFD0549064863
:1027F00001F0C2FE0223237085F3118838BD00BFAB
:10280000302B00209C4D0008C828002000F044B95F
:10281000034A516853685B1A9842FBD8704700BF5F
:10282000001000E08B600223086108468B8270472D
:102830008368A3F1840243F8142C026943F8442C02
:10284000426943F8402C094A43F8242CC268A3F19A
:10285000200043F8182C022203F80C2C002203F865
:102860000B2C034A43F8102C704700BF1D040008CE
:10287000C828002008B5FFF7DBFFBDE80840FFF7D8
:102880002BBF0000024BDB6898610F20FFF726BFCB
:10289000C8280020302383F31188FFF7F3BF00001E
:1028A00008B50146302383F311880820FFF72EFF77
:1028B000002383F3118808BD064BDB6839B14268F9
:1028C00018605A60136043600420FFF71FBF4FF089
:1028D000FF307047C82800200368984206D01A6865
:1028E0000260506018469961FFF7F6BE704700001D
:1028F00038B504460D462068844200D138BD0368CF
:1029000023605C608561FFF7E7FEF4E7036810B5BC
:102910009C68A2420CD85C688A600B604C602160A5
:10292000596099688A1A9A604FF0FF33836010BD2E
:10293000121B1B68ECE700000A2938BF0A2170B59A
:1029400004460D460A26601901F010FD01F0F8FC5E
:10295000041BA54203D8751C04462E46F3E70A2E35
:1029600004D90120BDE8704001F046BE70BD0000F2
:10297000F8B5144B0D460A2A4FF00A07D96103F146
:102980001001826038BF0A22416019691446016053
:1029900048601861A81801F0D9FC01F0D1FC431B74
:1029A0000646A34206D37C1C28192746354601F06B
:1029B000DDFCF2E70A2F04D90120BDE8F84001F060
:1029C0001BBEF8BDC8280020F8B506460D4601F02C
:1029D000B7FC0F4A134653F8107F9F4206D12A4690
:1029E00001463046BDE8F840FFF7C2BFD169BB6879
:1029F000441A2C1928BF2C46A34202D92946FFF7B6
:102A00009BFF224631460348BDE8F840FFF77EBFF2
:102A1000C8280020D8280020C0E90323002310B4D0
:102A20005DF8044B4361FFF7CFBF000010B5194CB0
:102A3000236998420DD08168D0E9003213605A6052
:102A40009A680A449A60002303604FF0FF33A36141
:102A500010BD0268234643F8102F53600022026025
:102A600022699A4203D1BDE8104001F079BC936815
:102A700081680B44936001F063FC2269E16992680C
:102A8000441AA242E4D91144BDE81040091AFFF7E4
:102A900053BF00BFC82800202DE9F047DFF8BC80F5
:102AA00008F110072C4ED8F8105001F049FCD8F866
:102AB0001C40AA68031B9A423ED814444FF00009F8
:102AC000D5E90032C8F81C4013605A60C5F8009080
:102AD000D8F81030B34201D101F042FC89F31188DB
:102AE000D5E9033128469847302383F311886B6971
:102AF000002BD8D001F024FC6A69A0EB04098246BF
:102B00004A450DD2022001F077FD0022D8F810309E
:102B1000B34208D151462846BDE8F047FFF728BF29
:102B2000121A2244F2E712EB09092946384638BF47
:102B30004A46FFF7EBFEB5E7D8F81030B34208D0AD
:102B40001444C8F81C00211AA960BDE8F047FFF73B
:102B5000F3BEBDE8F08700BFD8280020C8280020B9
:102B600000207047FEE70000704700004FF0FF3084
:102B70007047000002290CD0032904D0012907481E
:102B800018BF00207047032A05D8054800EBC20093
:102B90007047044870470020704700BF744E00081B
:102BA00044220020284E000870B59AB00546084619
:102BB000144601A900F0C2F801A8FEF7EFFA431C81
:102BC0000022C6B25B001046C5E90034237003231F
:102BD000023404F8013C01ABD1B202348E4201D878
:102BE0001AB070BD13F8011B013204F8010C04F88F
:102BF000021CF1E708B5302383F311880348FFF77F
:102C00000FFA002383F3118808BD00BF382B002082
:102C100090F8803003F01F02012A07D190F881203C
:102C20000B2A03D10023C0E91D3315E003F0600334
:102C3000202B08D1B0F884302BB990F88120212ABC
:102C400003D81F2A04D8FFF7CDB9222AEBD0FAE720
:102C5000034A426707228267C3670120704700BFAB
:102C60003B22002007B5052917D8DFE801F0191627
:102C700003191920302383F31188104A0121019090
:102C8000FFF776FA019802210D4AFFF771FA0D4815
:102C9000FFF792F9002383F3118803B05DF804FB7A
:102CA000302383F311880748FFF75CF9F2E73023FC
:102CB00083F311880348FFF773F9EBE7C84D000869
:102CC000EC4D0008382B002038B50C4D0C4C2A4632
:102CD0000C4904F10800FFF767FF05F1CA0204F18F
:102CE00010000949FFF760FF05F5CA7204F11800EA
:102CF0000649BDE83840FFF757BF00BF1044002029
:102D000044220020A84D0008B24D0008BD4D000827
:102D100070B5044608460D46FEF740FAC6B2204696
:102D2000013403780BB9184670BD32462946FEF7C8
:102D300021FA0028F3D10120F6E700002DE9F04741
:102D400005460C46FEF72AFA2B49C6B22846FFF77D
:102D5000DFFF08B10736F6B228492846FFF7D8FF4B
:102D600008B11036F6B2632E0BD8DFF88C80DFF88E
:102D70008C90234FDFF894A02E7846B92670BDE8DA
:102D8000F08729462046BDE8F04701F015BF252E03
:102D90002ED1072241462846FEF7ECF970B9194BAF
:102DA000224603F10C0153F8040B8B4242F8040B4A
:102DB000F9D11B8807350E341380DDE70822494618
:102DC0002846FEF7D7F998B9A21C0F4B19780232A2
:102DD0000909C95D02F8041C13F8011B01F00F0179
:102DE0005345C95D02F8031CF0D118340835C3E718
:102DF000013504F8016BBFE7944E0008BD4D000893
:102E0000AB4E00089C4E000800E8F11F0CE8F11FD3
:102E1000BFF34F8F044B1A695107FCD1D3F810212F
:102E20005207F8D1704700BF0020005208B50D4B83
:102E30001B78ABB9FFF7ECFF0B4BDA68D10704D571
:102E40000A4A5A6002F188325A60D3F80C21D2073C
:102E500006D5064AC3F8042102F18832C3F80421DA
:102E600008BD00BF6E4600200020005223016745C8
:102E700008B5114B1B78F3B9104B1A69510703D5EC
:102E8000DA6842F04002DA60D3F81021520705D523
:102E9000D3F80C2142F04002C3F80C21FFF7B8FF31
:102EA000064BDA6842F00102DA60D3F80C2142F0F6
:102EB0000102C3F80C2108BD6E460020002000521C
:102EC0000F289ABF00F58060400400207047000082
:102ED0004FF4003070470000102070470F2808B5ED
:102EE0000BD8FFF7EDFF00F500330268013204D183
:102EF00004308342F9D1012008BD0020FCE7000026
:102F00000F2838B505463FD8FFF782FF1F4CFFF763
:102F10008DFF4FF0FF3307286361C4F814311DD8CB
:102F20002361FFF775FF030243F02403E360E368C6
:102F300043F08003E36023695A07FCD42846FFF777
:102F400067FFFFF7BDFF4FF4003100F0C5F92846D9
:102F5000FFF78EFFBDE83840FFF7C0BFC4F810315F
:102F6000FFF756FFA0F108031B0243F02403C4F847
:102F70000C31D4F80C3143F08003C4F80C31D4F890
:102F800010315B07FBD4D9E7002038BD0020005288
:102F90002DE9F84F04460D46104644EA0203DE06CA
:102FA00002D00020BDE8F88F20F01F00DFF8D4B079
:102FB000DFF8D4A0FFF73AFF05EB0008454503D141
:102FC0000120FFF755FFEDE720222946204601F0BA
:102FD000E3FD10B920342035F0E7234604F1200248
:102FE0001F68791CDDD104339342F9D104F1784391
:102FF0002048214EB3F5801F204B38BF184603F1FF
:10300000F80332BFD946D1461E46FFF701FF0760DD
:10301000A4EB050C336805F11C0143F00203336097
:103020002B1FD9F8007017F00507FAD153F8042FB9
:103030008B424CF80320F4D1BFF34F8FFFF7E8FE2B
:103040004FF0FF330360336823F002033360BFF3B4
:103050004F8F0B4BC3F85C42BFF34F8FBFF36F8FA3
:1030600020222946204601F097FD0028B2D038469C
:10307000A7E700BF142100520C2000521420005278
:1030800000ED00E0102000521021005210B5084C55
:10309000237828B11BB9FFF7C9FE0123237010BDA7
:1030A000002BFCD02070BDE81040FFF7E1BE00BF50
:1030B0006E4600202DE9F04F0D4685B0814658B18F
:1030C00011F00D0614BF2022082211F0080301930D
:1030D00004D0431E03426AD0002435E0002E37D0CE
:1030E00009F11F0121F01F094FF00108324F05F0CF
:1030F0000403DFF8D0A005EA080BBBF1000F32D0C3
:103100007869C0072FD408F101080C37B8F1060F11
:10311000F3D19EB9294D4946A819019201F076F9DB
:10312000044600283AD11836019A782EF3D1494640
:1031300001F06CF90446002830D1019A4946204834
:1031400001F064F9044668BB204605B0BDE8F08F85
:103150000029C9D101462846029201F057F90446D8
:10316000E0B9029AC0E713B178694107CBD5AC0743
:1031700002D578698007C6D5019911B17869010730
:10318000C1D51820494600FB08A0CDE9022301F073
:103190003DF90446DDE902230028B4D04A46002167
:1031A000204601E04A460021FEF700F8CCE702463F
:1031B000002E95D198E700BFBC4E0008A046002025
:1031C00070460020884600200121FFF773BF0000F1
:1031D000F8B500231A461A600433B3F5806FFAD1AC
:1031E000114D01241827114E07FB046001342A6990
:1031F00055F80C1F01F0F6F8062CF5D137254FF4E1
:10320000C0542046FFF7E0FF014628B12246084897
:10321000BDE8F84001F0E6B8C4EBC404013D4FEA54
:10322000D404EED1F8BD00BFBC4E00088846002093
:103230007046002008B101F05BB970470244074BAB
:10324000D2B210B5904200D110BD441C00B253F868
:10325000200041F8040BE0B2F4E700BF50400058F2
:103260000E4B30B51C6F240405D41C6F1C671C6FFB
:1032700044F400441C670A4C02442368D2B243F46D
:1032800080732360074B904200D130BD441C51F83D
:10329000045B00B243F82050E0B2F4E70044025867
:1032A000004802585040005807B5012201A90020EB
:1032B000FFF7C4FF019803B05DF804FB13B50446A3
:1032C000FFF7F2FFA04205D0012201A900200194DE
:1032D000FFF7C6FF02B010BD0144BFF34F8F064B8E
:1032E000884204D3BFF34F8FBFF36F8F7047C3F88B
:1032F0005C022030F4E700BF00ED00E0034B1A68E9
:103300001AB9034AD2F8D0241A607047184700202F
:103310000040025808B5FFF7F1FF024B1868C0F3F0
:10332000806008BD18470020CAB201460120FFF79F
:1033300097BF0000CAB201460120FFF77FBF00001F
:103340007047000070470000EFF3098305496833B8
:103350004A6B22F001024A6383F30988002383F356
:103360001188704700EF00E0302080F3118862B6CA
:103370000D4B0E4AD96821F4E0610904090C0A4397
:103380000B49DA60D3F8FC2042F08072C3F8FC20CD
:10339000084AC2F8B01F116841F0010111602022F3
:1033A000DA7783F82200704700ED00E00003FA05A9
:1033B00055CEACC5001000E0302310B583F3118862
:1033C0000E4B5B6813F4006314D0F1EE103AEFF388
:1033D00009844FF08073683CE361094BDB6B236623
:1033E00084F30988FFF7D2F910B1064BA36110BD31
:1033F000054BFBE783F31188F9E700BF00ED00E020
:1034000000EF00E02F0400083204000870B5BFF39D
:103410004F8FBFF36F8F1A4A0021C2F85012BFF3CB
:103420004F8FBFF36F8F536943F400335361BFF382
:103430004F8FBFF36F8FC2F88410BFF34F8FD2F856
:10344000803043F6E074C3F3C900C3F34E335B012D
:1034500003EA0406014646EA81750139C2F8605262
:10346000F9D2203B13F1200FF2D1BFF34F8F5369F4
:1034700043F480335361BFF34F8FBFF36F8F70BD41
:1034800000ED00E0FEE70000214B2248224A70B523
:10349000904237D3214BC11EDA1C121A22F00302CC
:1034A0008B4238BF00220021FDF780FE1C4A00231A
:1034B000C2F88430BFF34F8FD2F8803043F6E07407
:1034C000C3F3C900C3F34E335B0103EA04060146AC
:1034D00046EA81750139C2F86C52F9D2203B13F1EA
:1034E000200FF2D1BFF34F8FBFF36F8FBFF34F8F1A
:1034F000BFF36F8F0023C2F85032BFF34F8FBFF37B
:103500006F8F70BD53F8041B40F8041BC0E700BF69
:10351000E45000088C4800208C4800208C48002093
:1035200000ED00E0074BD3F8D81021EA0001C3F802
:10353000D810D3F8002122EA0002C3F80021D3F802
:10354000003170470044025870B5D0E9244300228E
:103550004FF0FF359E6804EB42135101D3F8000988
:10356000002805DAD3F8000940F08040C3F80009CC
:10357000D3F8000B002805DAD3F8000B40F08040A8
:10358000C3F8000B013263189642C3F80859C3F818
:10359000085BE0D24FF00113C4F81C3870BD000086
:1035A000890141F02001016103699B06FCD41220CE
:1035B000FFF72EB910B50A4C2046FEF7B7FD094BB0
:1035C000C4F89030084BC4F89430084C2046FEF7FD
:1035D000ADFD074BC4F89030064BC4F8943010BDD5
:1035E0001C47002000000840284F0008B847002072
:1035F00000000440344F000870B503780546012BE5
:103600005CD1434BD0F89040984258D1414B0E21A9
:103610006520D3F8D82042F00062C3F8D820D3F850
:10362000002142F00062C3F80021D3F80021D3F852
:10363000802042F00062C3F88020D3F8802022F07E
:103640000062C3F88020D3F88030FEF7D5F9324B02
:10365000E360324BC4F800380023D5F89060C4F81A
:10366000003EC02323604FF40413A3633369002B8F
:10367000FCDA01230C203361FFF7CAF83369DB075A
:10368000FCD41220FFF7C4F83369002BFCDA0026C3
:103690002846A660FFF758FF6B68C4F81068DB681F
:1036A000C4F81468C4F81C6883BB1D4BA3614FF0B9
:1036B000FF336361A36843F00103A36070BD194B3E
:1036C0009842C9D1134B4FF08060D3F8D82042F014
:1036D0000072C3F8D820D3F8002142F00072C3F87A
:1036E0000021D3F80021D3F8802042F00072C3F803
:1036F0008020D3F8802022F00072C3F88020D3F815
:103700008030FFF70FFF0E214D209EE7064BCDE7DF
:103710001C470020004402584014004003002002CF
:10372000003C30C0B8470020083C30C0F8B5D0F8A5
:103730009040054600214FF000662046FFF730FF1D
:10374000D5F8941000234FF001128F684FF0FF302E
:10375000C4F83438C4F81C2804EB431201339F42E8
:10376000C2F80069C2F8006BC2F80809C2F8080B79
:10377000F2D20B68D5F89020C5F898306362102318
:103780001361166916F01006FBD11220FFF740F8FE
:10379000D4F8003823F4FE63C4F80038A36943F476
:1037A000402343F01003A3610923C4F81038C4F880
:1037B00014380B4BEB604FF0C043C4F8103B094B7F
:1037C000C4F8003BC4F81069C4F80039D5F8983043
:1037D00003F1100243F48013C5F89820A362F8BDEA
:1037E000044F000840800010D0F8902090F88A1014
:1037F000D2F8003823F4FE6343EA0113C2F800381C
:10380000704700002DE9F84300EB8103D0F8905099
:103810000C468046DA680FFA81F94801166806F00E
:103820000306731E022B05EB41134FF0000194BFFA
:10383000B604384EC3F8101B4FF0010104F1100319
:1038400098BF06F1805601FA03F3916998BF06F517
:10385000004600293AD0578A04F1580137434901FC
:103860006F50D5F81C180B430021C5F81C382B18D5
:103870000127C3F81019A7405369611E9BB3138A2F
:10388000928B9B08012A88BF5343D8F89820981838
:1038900042EA034301F140022146C8F89800284655
:1038A00005EB82025360FFF77BFE08EB8900C368DB
:1038B0001B8A43EA845348341E4364012E51D5F8D1
:1038C0001C381F43C5F81C78BDE8F88305EB491781
:1038D000D7F8001B21F40041C7F8001BD5F81C18CD
:1038E00021EA0303C0E704F13F030B4A28462146BF
:1038F00005EB83035A60FFF753FE05EB4910D0F840
:10390000003923F40043C0F80039D5F81C3823EA05
:103910000707D7E70080001000040002D0F89420C9
:103920001268C0F89820FFF70FBE00005831D0F899
:10393000903049015B5813F4004004D013F4001F89
:103940000CBF0220012070474831D0F89030490167
:103950005B5813F4004004D013F4001F0CBF022086
:103960000120704700EB8101CB68196A0B68136076
:103970004B6853607047000000EB810330B5DD6891
:10398000AA691368D36019B9402B84BF4023136020
:103990006B8A1468D0F890201C4402EB4110013C63
:1039A00009B2B4FBF3F46343033323F0030343EAA4
:1039B000C44343F0C043C0F8103B2B6803F003033B
:1039C000012B0ED1D2F8083802EB411013F4807F9E
:1039D000D0F8003B14BF43F0805343F00053C0F8CD
:1039E000003B02EB4112D2F8003B43F00443C2F823
:1039F000003B30BD2DE9F041D0F8906005460C4603
:103A000006EB4113D3F8087B3A07C3F8087B08D5C7
:103A1000D6F814381B0704D500EB8103DB685B681C
:103A20009847FA071FD5D6F81438DB071BD505EBE6
:103A30008403D968CCB98B69488A5A68B2FBF0F61E
:103A400000FB16228AB91868DA6890420DD2121A61
:103A5000C3E90024302383F3118821462846FFF769
:103A60008BFF84F31188BDE8F081012303FA04F28F
:103A70006B8923EA02036B81CB68002BF3D02146CC
:103A80002846BDE8F041184700EB81034A0170B5B4
:103A9000DD68D0F890306C692668E66056BB1A4441
:103AA0004FF40020C2F810092A6802F00302012A2C
:103AB0000AB20ED1D3F8080803EB421410F4807F49
:103AC000D4F8000914BF40F0805040F00050C4F812
:103AD000000903EB4212D2F8000940F00440C2F89A
:103AE00000090122D3F8340802FA01F10143C3F8B6
:103AF000341870BD19B9402E84BF40202060206862
:103B00001A442E8A8419013CB4FBF6F440EAC440FE
:103B100040F00050C6E700002DE9F843D0F890606F
:103B200005460C464F0106EB4113D3F8088918F0FF
:103B3000010FC3F808891CD0D6F81038DB0718D558
:103B400000EB8103D3F80CC0DCF81430D3F800E0AC
:103B5000DA68964530D2A2EB0E024FF000091A60E7
:103B6000C3F80490302383F31188FFF78DFF89F3A6
:103B7000118818F0800F1DD0D6F834380126A640E1
:103B8000334217D005EB84030134D5F89050D3F8B5
:103B90000CC0E4B22F44DCF8142005EB0434D2F856
:103BA00000E05168714514D3D5F8343823EA06068D
:103BB000C5F83468BDE8F883012303FA01F20389EC
:103BC00023EA02030381DCF80830002BD1D09847A8
:103BD000CFE7AEEB0103BCF81000834228BF0346D9
:103BE000D7F8180980B2B3EB800FE3D89068A0F142
:103BF000040959F8048FC4F80080A0EB0908984420
:103C0000B8F1040FF5D818440B4490605360C8E72E
:103C10002DE9F84FD0F8905004466E69AB691E400C
:103C200016F480586E6103D0BDE8F84FFEF7EEBA87
:103C3000002E12DAD5F8003E9B0705D0D5F8003EDD
:103C400023F00303C5F8003ED5F80438204623F0DE
:103C50000103C5F80438FEF707FB370505D52046F4
:103C6000FFF772FC2046FEF7EDFAB0040CD5D5F84C
:103C7000083813F0060FEB6823F470530CBF43F4BD
:103C8000105343F4A053EB6031071BD56368DB6826
:103C90001BB9AB6923F00803AB612378052B0CD16A
:103CA000D5F8003E9A0705D0D5F8003E23F003036F
:103CB000C5F8003E2046FEF7D7FA6368DB680BB113
:103CC00020469847F30200F1BA80B70226D5D4F80F
:103CD000909000274FF0010A09EB4712D2F8003B01
:103CE00003F44023B3F5802F11D1D2F8003B002B11
:103CF0000DDA62890AFA07F322EA0303638104EB0F
:103D00008703DB68DB6813B13946204698470137E3
:103D1000D4F89430FFB29B689F42DDD9F00619D5E4
:103D2000D4F89000026AC2F30A1702F00F0302F4FB
:103D3000F012B2F5802F00F0CA80B2F5402F09D101
:103D400004EB8303002200F58050DB681B6A974276
:103D500040F0B0803003D5F8185835D5E90303D5C5
:103D600000212046FFF746FEAA0303D50121204685
:103D7000FFF740FE6B0303D502212046FFF73AFE12
:103D80002F0303D503212046FFF734FEE80203D5B5
:103D900004212046FFF72EFEA90203D50521204667
:103DA000FFF728FE6A0203D506212046FFF722FE10
:103DB0002B0203D507212046FFF71CFEEF0103D598
:103DC00008212046FFF716FE700340F1A780E9079F
:103DD00003D500212046FFF79FFEAA0703D5012146
:103DE0002046FFF799FE6B0703D502212046FFF717
:103DF00093FE2F0703D503212046FFF78DFEEE0625
:103E000003D504212046FFF787FEA80603D5052128
:103E10002046FFF781FE690603D506212046FFF7FD
:103E20007BFE2A0603D507212046FFF775FEEB052A
:103E300074D520460821BDE8F84FFFF76DBED4F8D1
:103E400090904FF0000B4FF0010AD4F894305FFAD5
:103E50008BF79B689F423FF638AF09EB4713D3F8C7
:103E6000002902F44022B2F5802F20D1D3F8002996
:103E7000002A1CDAD3F8002942F09042C3F8002946
:103E8000D3F80029002AFBDB3946D4F89000FFF76D
:103E900087FB22890AFA07F322EA0303238104EB52
:103EA0008703DB689B6813B13946204698470BF1BE
:103EB000010BCAE7910701D1D0F80080072A02F16F
:103EC00001029CBF03F8018B4FEA18283FE704EB7F
:103ED000830300F58050DA68D2F818C0DCF80820B7
:103EE000DCE9001CA1EB0C0C00218F4208D1DB683F
:103EF0009B699A683A449A605A683A445A6029E73A
:103F000011F0030F01D1D0F800808C4501F10101BF
:103F100084BF02F8018B4FEA1828E6E7BDE8F88F66
:103F200008B50348FFF774FEBDE80840FFF744BA40
:103F30001C47002008B50348FFF76AFEBDE80840AB
:103F4000FFF73ABAB8470020D0F8903003EB4111A0
:103F5000D1F8003B43F40013C1F8003B7047000068
:103F6000D0F8903003EB4111D1F8003943F400133D
:103F7000C1F8003970470000D0F8903003EB4111D0
:103F8000D1F8003B23F40013C1F8003B7047000058
:103F9000D0F8903003EB4111D1F8003923F400132D
:103FA000C1F800397047000030B50433039C01723A
:103FB000002104FB0325C160C0E90653049B036391
:103FC000059BC0E90000C0E90422C0E90842C0E93D
:103FD0000A11436330BD00000022416AC260C0E99B
:103FE0000411C0E90A226FF00101FEF781BC000054
:103FF000D0E90432934201D1C2680AB9181D704752
:1040000000207047036919600021C2680132C26054
:10401000C269134482699342036124BF436A036106
:10402000FEF75ABC38B504460D46E3683BB16269F9
:104030000020131D1268A3621344E36207E0237A91
:1040400033B929462046FEF737FC0028EDDA38BDA3
:104050006FF00100FBE70000C368C269013BC36069
:104060004369134482699342436124BF436A4361B5
:1040700000238362036B03B11847704770B5302388
:10408000044683F31188866A3EB9FFF7CBFF0546E5
:1040900018B186F31188284670BDA36AE26A13F846
:1040A000015B9342A36202D32046FFF7D5FF0023B2
:1040B00083F31188EFE700002DE9F84F04460E4620
:1040C000174698464FF0300989F311880025AA4613
:1040D000D4F828B0BBF1000F09D141462046FFF7C4
:1040E000A1FF20B18BF311882846BDE8F88FD4E9F1
:1040F0000A12A7EB050B521A934528BF9346BBF152
:10410000400F1BD9334601F1400251F8040B914294
:1041100043F8040BF9D1A36A403640354033A3621B
:10412000D4E90A239A4202D32046FFF795FF8AF387
:104130001188BD42D8D289F31188C9E730465A4662
:10414000FDF70EF8A36A5E445D445B44A362E7E7B3
:1041500010B5029C0433017203FB0421C460C0E962
:1041600006130023C0E90A33039B0363049BC0E9E1
:104170000000C0E90422C0E90842436310BD00000A
:10418000026A6FF00101C260426AC0E904220022A3
:10419000C0E90A22FEF7ACBBD0E904239A4201D160
:1041A000C26822B9184650F8043B0B6070470023E0
:1041B0001846FAE7C3680021C2690133C360436946
:1041C000134482699342436124BF436A4361FEF70B
:1041D00083BB000038B504460D46E3683BB1236954
:1041E00000201A1DA262E2691344E36207E0237A09
:1041F00033B929462046FEF75FFB0028EDDA38BDCB
:104200006FF00100FBE7000003691960C268013A22
:10421000C260C269134482699342036124BF436A46
:10422000036100238362036B03B1184770470000EA
:1042300070B530230D460446114683F31188866A13
:104240002EB9FFF7C7FF10B186F3118870BDA36ABE
:104250001D70A36AE26A01339342A36204D3E16949
:1042600020460439FFF7D0FF002080F31188EDE7E6
:104270002DE9F84F04460D46904699464FF0300A16
:104280008AF311880026B346A76A4FB949462046EB
:10429000FFF7A0FF20B187F311883046BDE8F88F03
:1042A000D4E90A073A1AA8EB0607974228BF17462F
:1042B000402F1BD905F1400355F8042B9D4240F8CF
:1042C000042BF9D1A36A40364033A362D4E90A2310
:1042D0009A4204D3E16920460439FFF795FF8BF336
:1042E00011884645D9D28AF31188CDE729463A4646
:1042F000FCF736FFA36A3D443E443B44A362E5E736
:10430000D0E904239A4217D1C3689BB1836A8BB169
:10431000043B9B1A0ED01360C368013BC360C369A2
:104320001A4483699A42026124BF436A03610023ED
:1043300083620123184670470023FBE700F060BA50
:10434000014B586A704700BF000C0040034B00222D
:1043500058631A610222DA60704700BF000C004007
:10436000014B0022DA607047000C0040014B58639B
:10437000704700BF000C0040024B034A1A60034A1A
:104380005A6070476C4800209048002000000220CE
:10439000074B494210B55C68201A08401968821A18
:1043A0008A4203D3A24201D85A6010BD0020FCE724
:1043B0006C48002008B5302383F31188FFF7E8FF2D
:1043C000002383F3118808BD04480121044B0360D6
:1043D0000023C0E901330C3000F016B97448002006
:1043E000B5430008CB1D083A23F00703591A521AA7
:1043F000012110B4D2080024C0E9004384600C30CD
:104400001C605A605DF8044B00F0FEB82DE9F84FCF
:10441000364ECD1D0F46002818BF0646082A4FEA23
:10442000D50538BF082206F10C08341D91464046D8
:1044300000F006F909F10701C9F1000E22462468CF
:104440006CB9404600F006F93368CBB30822494600
:10445000E8009847044698B340E9026730E004EB6F
:10446000010CD4F804A00CEA0E0C0AF10100ACF126
:10447000080304EBC0009842E0D9A0EB0C0CB5EBAC
:10448000EC0F4FEAEC0BD9D89C421CD204F1080285
:10449000AB45A3EB02024FEAE202626009D9691C54
:1044A000ED43206803EBC1025D44556043F83100E1
:1044B00022601C465F60404644F8086B00F0CAF872
:1044C0002046BDE8F88FAA45216802D11160234635
:1044D000EFE7013504EBC50344F8351003F108019B
:1044E000401AC01058601360F1E700BF7448002004
:1044F000F8B550F8043C044650F8085CA0F10806F2
:1045000007332F1D0C35DB0840F8043C284600F02B
:1045100097F83B469F421A6801D0B34228D20AB1AD
:10452000964225D244F8082C54F8042C1E6001321F
:1045300054F8081C06EBC200814206D148680244C8
:1045400044F8042C0A6844F8082C5868411C03EB12
:10455000C1018E4207D154F8042C013202445A6042
:1045600054F8082C1A602846BDE8F84000F072B8EC
:104570001346CFE7FEE7000070B51B4B002504464D
:1045800086B058600E4685620163FEF7EDFE04F1C9
:104590001003A560E562C4E904334FF0FF33C4E9BA
:1045A0000044C4E90635FFF7CBFE2B46024604F172
:1045B00034012046C4E9082380230C4A2565FEF710
:1045C00031F901230A4AE060009203756846726877
:1045D0000192B268CDE90223064BCDE90435FEF71E
:1045E00049F906B070BD00BF302B0020404F0008D5
:1045F000454F000875450008024AD36A1843D06247
:10460000704700BFC8280020C0E9000081607047E3
:104610008368013B002B10B583600CDA074BDC6824
:104620004368A061206063601C6044600520FEF761
:1046300055F8A06910BD0020FCE700BFC828002085
:1046400008B5302383F31188FFF7E2FF002383F3DB
:10465000118808BD08B5302383F3118883680133BE
:10466000002B836007DC036800211A680260506039
:104670001846FEF769F8002383F3118808BD00008F
:104680004B6843608B688360CB68C3600B69436190
:104690004B6903628B6943620B68036070470000DB
:1046A00008B53C4B40F2FF713B48D3F888200A43E1
:1046B000C3F88820D3F8882022F4FF6222F0070292
:1046C000C3F88820D3F88820D3F8E0200A43C3F841
:1046D000E020D3F808210A43C3F808212F4AD3F871
:1046E00008311146FFF7CCFF00F5806002F11C0194
:1046F000FFF7C6FF00F5806002F13801FFF7C0FF49
:1047000000F5806002F15401FFF7BAFF00F5806008
:1047100002F17001FFF7B4FF00F5806002F18C0137
:10472000FFF7AEFF00F5806002F1A801FFF7A8FFD8
:1047300000F5806002F1C401FFF7A2FF00F5806080
:1047400002F1E001FFF79CFF00F5806002F1FC013F
:10475000FFF796FF02F58C7100F58060FFF790FF80
:1047600000F01AF90E4BD3F8902242F00102C3F880
:104770009022D3F8942242F00102C3F89422052239
:10478000C3F898204FF06052C3F89C20054AC3F844
:10479000A02008BD00440258000002584C4F0008F9
:1047A00000ED00E01F00080308B500F0E1F9FEF796
:1047B00013F8104BD3F8DC2042F04002C3F8DC20A1
:1047C000D3F8042122F04002C3F80421D3F80431C5
:1047D000094B1A6842F008021A601A6842F0040293
:1047E0001A60FEF78BFDFEF7F3FCBDE80840FEF70C
:1047F0006BBA00BF0044025800180248704700001E
:10480000114BD3F8E82042F00802C3F8E820D3F8AF
:10481000102142F00802C3F810210C4AD3F81031DD
:10482000D36B43F00803D363C722094B9A624FF05E
:10483000FF32DA6200229A615A63DA605A6001221A
:104840005A611A60704700BF004402580010005CB3
:10485000000C0040094A08B51169D3680B40D9B271
:104860009B076FEA0101116107D5302383F311889B
:10487000FDF7CCFF002383F3118808BD000C004036
:10488000064BD3F8DC200243C3F8DC20D3F8042124
:104890001043C3F80401D3F80431704700440258B0
:1048A00008B53C4B4FF0FF31D3F8802062F0004256
:1048B000C3F88020D3F8802002F00042C3F88020A3
:1048C000D3F88020D3F88420C3F88410D3F8842050
:1048D0000022C3F88420D3F88400D86F40F0FF4052
:1048E00040F4FF0040F4DF4040F07F00D867D86F0D
:1048F00020F0FF4020F4FF0020F4DF4020F07F0094
:10490000D867D86FD3F888006FEA40506FEA5050EC
:10491000C3F88800D3F88800C0F30A00C3F8880001
:10492000D3F88800D3F89000C3F89010D3F8900023
:10493000C3F89020D3F89000D3F89400C3F89410F3
:10494000D3F89400C3F89420D3F89400D3F89800D7
:10495000C3F89810D3F89800C3F89820D3F89800BB
:10496000D3F88C00C3F88C10D3F88C00C3F88C20DB
:10497000D3F88C00D3F89C00C3F89C10D3F89C109B
:10498000C3F89C20D3F89C30FCF748FEBDE80840F3
:1049900000F0DEB80044025808B50122534BC3F8BA
:1049A0000821534BD3F8F42042F00202C3F8F4205C
:1049B000D3F81C2142F00202C3F81C210222D3F8D2
:1049C0001C314C4BDA605A689104FCD54A4A1A6093
:1049D00001229A60494ADA6000221A614FF440428B
:1049E0009A61444B9A699204FCD51A6842F4807229
:1049F0001A603F4B1A6F12F4407F04D04FF480329C
:104A00001A6700221A671A6842F001021A60384BCE
:104A10001A685007FCD500221A611A6912F0380290
:104A2000FBD1012119604FF0804159605A67344A27
:104A3000DA62344A1A611A6842F480321A602C4BE6
:104A40001A689103FCD51A6842F480521A601A68F9
:104A50009204FCD52C4A2D499A6200225A631963AC
:104A600001F57C01DA6301F2E71199635A64284A7F
:104A70001A64284ADA621A6842F0A8521A601C4B7B
:104A80001A6802F02852B2F1285FF9D148229A61DF
:104A90004FF48862DA6140221A621F4ADA641F4AC0
:104AA0001A651F4A5A651F4A9A6532231E4A1360C7
:104AB000136803F00F03022BFAD10D4A136943F078
:104AC00003031361136903F03803182BFAD14FF075
:104AD0000050FFF7D5FE4FF08040FFF7D1FE4FF0BA
:104AE0000040BDE80840FFF7CBBE00BF008000518A
:104AF000004402580048025800C000F002000001C3
:104B00000000FF01008890081210200063020901D4
:104B1000470E0508DD0BBF0120000020000001103A
:104B20000910E000000101100020005208B5034800
:104B3000FCF7DCFEBDE80840FEF73EBC5C2400202C
:104B400008B5FFF787FEBDE80840FEF735BC00005A
:104B500008B509217A20FCF74FFF07213220FCF726
:104B60004BFF0C212520BDE80840FCF745BF0000A5
:104B700008B5FFF795FE00F00DF8FDF7FBF8FDF71F
:104B8000D3FAFDF7A5F9FFF739FEBDE80840FFF7B6
:104B9000D5BB00007047000010B5013902449042B7
:104BA00001D1002005E0037811F8014FA34201D0A4
:104BB000181B10BD0130F2E7034611F8012B03F872
:104BC000012B002AF9D17047363430663437313042
:104BD00031303435336431320000000012100000EF
:104BE000121100001213000053544D333248373F66
:104BF0003F3F0053544D3332483733782F373278A4
:104C00000053544D3332483734332F3735332F3731
:104C10003530000001105A000310590001205800DF
:104C20000320560010000240080002400008024025
:104C300000000B0028000240080002400408024067
:104C400006010C0040000240080002400808024033
:104C500010020D0058000240080002400C080240FB
:104C600016030E00700002400C00024010080240C3
:104C700000040F00880002400C00024014080240AB
:104C800006051000A00002400C0002401808024077
:104C900010061100B80002400C0002401C0802403F
:104CA00016072F00100402400804024020080240AA
:104CB000000838002804024008040240240802408A
:104CC0000609390040040240080402402808024056
:104CD000100A3A0058040240080402402C0802401E
:104CE000160B3B00700402400C04024030080240E6
:104CF000000C3C00880402400C04024034080240CE
:104D0000060D4400A00402400C0402403808024092
:104D1000100E4500B80402400C0402403C0802405A
:104D2000160F460000960000000000000000000082
:104D30000000000000000000000000000000000073
:104D4000351D0008211D00085D1D0008491D0008D3
:104D5000551D0008411D00082D1D0008191D0008E3
:104D6000691D0008000000004D1E0008391E0008E3
:104D7000751E0008611E00086D1E0008591E0008FF
:104D8000451E0008311E0008811E000800000000BA
:104D9000010000000000000063300000984D000892
:104DA00020290020302B00204172647550696C6FFF
:104DB000740025424F415244252D424C0025534555
:104DC0005249414C25000000020000000000000094
:104DD0006D200008DD20000840004000E043002076
:104DE000F04300200200000000000000030000006B
:104DF0000000000025210008000000001000000055
:104E0000004400200000000001000000000000003D
:104E10001C47002001010200652C0008752B0008CA
:104E2000112C0008F52B000843000000304E00084C
:104E300009024300020100C032090400000102021D
:104E400001000524001001052401000104240202D0
:104E50000524060001070582030800FF090401007C
:104E6000020A000000070501024000000705810258
:104E700040000000120000007C4E000812011001EA
:104E80000200004009124157000201020301000024
:104E90000403090425424F41524425004D69636FC4
:104EA0004169723734332D41494F00303132333448
:104EB000353637383941424344454600000000202A
:104EC00000000200020000000000003000000400AA
:104ED000080000000000002400000800040000009A
:104EE0000004000000FC000002000000000004308C
:104EF00000800000080000000000003800000100F1
:104F0000010000000000000081220008392500088F
:104F1000E525000840004000544800205448002087
:104F200001000000644800208000000040010000F3
:104F30000800000000010000001000000800000050
:104F40006D61696E0069646C650000000000A86A0C
:104F500000000000AAAAAAAA00001464FFFF000033
:104F60000000000070A70A00000000000000000020
:104F7000AAAAAAAA00000000FFFF0000000000008B
:104F8000000000000000000000000000AAAAAAAA79
:104F900000000000FFFF0000000000000000000013
:104FA0000005000000000000AAAAAAAA000500004F
:104FB000FFFF0000000000000000000000110000E2
:104FC00000000000AAAAAAAA00000000AFFF00008B
:104FD00000000000000000000000000000000000D1
:104FE000AAAAAAAA00000000FFFF0000000000001B
:104FF000000000000000000000000000AAAAAAAA09
:1050000000000000FFFF00000000000000000000A2
:105010000000000000000000AAAAAAAA00000000E8
:10502000FFFF000000000000000000000000000082
:1050300000000000AAAAAAAA00000000FFFF0000CA
:105040000000000000000000000000000000000060
:10505000AAAAAAAA00000000FFFF000000000000AA
:10506000000000000000000000000000AAAAAAAA98
:1050700000000000FFFF0000000000000000000032
:10508000980400000000000000001A00000000006A
:10509000FF000000382B00205C24002000000000EE
:1050A000E84B000883040000F34B000850040000A4
:1050B000014C000800960000000008009600000067
:1050C0000008000004000000904E000800000000EE
:1050D00000000000000000000000000000000000D0
:0450E00000000000CC
:00000001FF
